{
  "contractName": "Voting",
  "abi": [
    {
      "inputs": [],
      "payable": false,
      "stateMutability": "nonpayable",
      "type": "constructor"
    },
    {
      "constant": false,
      "inputs": [
        {
          "name": "ballotID",
          "type": "bytes32"
        },
        {
          "name": "len",
          "type": "uint256"
        },
        {
          "name": "numOfCands",
          "type": "uint256"
        },
        {
          "name": "cands",
          "type": "bytes32[]"
        },
        {
          "name": "votes",
          "type": "uint256[]"
        }
      ],
      "name": "createBallot",
      "outputs": [],
      "payable": false,
      "stateMutability": "nonpayable",
      "type": "function"
    },
    {
      "constant": false,
      "inputs": [
        {
          "name": "ballotID",
          "type": "bytes32"
        }
      ],
      "name": "setEndedBallot",
      "outputs": [],
      "payable": false,
      "stateMutability": "nonpayable",
      "type": "function"
    },
    {
      "constant": true,
      "inputs": [
        {
          "name": "ballotID",
          "type": "bytes32"
        }
      ],
      "name": "confirmBallot",
      "outputs": [
        {
          "name": "",
          "type": "bool"
        }
      ],
      "payable": false,
      "stateMutability": "view",
      "type": "function"
    },
    {
      "constant": true,
      "inputs": [
        {
          "name": "ballotID",
          "type": "bytes32"
        }
      ],
      "name": "checkActiveBallot",
      "outputs": [
        {
          "name": "",
          "type": "bool"
        }
      ],
      "payable": false,
      "stateMutability": "view",
      "type": "function"
    },
    {
      "constant": true,
      "inputs": [
        {
          "name": "ballotID",
          "type": "bytes32"
        }
      ],
      "name": "getCandidateSize",
      "outputs": [
        {
          "name": "",
          "type": "uint256"
        }
      ],
      "payable": false,
      "stateMutability": "view",
      "type": "function"
    },
    {
      "constant": true,
      "inputs": [
        {
          "name": "ballotID",
          "type": "bytes32"
        }
      ],
      "name": "getCandidateInfo",
      "outputs": [
        {
          "name": "",
          "type": "bytes32[]"
        }
      ],
      "payable": false,
      "stateMutability": "view",
      "type": "function"
    },
    {
      "constant": true,
      "inputs": [
        {
          "name": "ballotID",
          "type": "bytes32"
        }
      ],
      "name": "getVotingInfo",
      "outputs": [
        {
          "name": "",
          "type": "uint256[]"
        }
      ],
      "payable": false,
      "stateMutability": "view",
      "type": "function"
    }
  ],
  "bytecode": "0x608060405234801561001057600080fd5b50610782806100206000396000f300608060405260043610610083576000357c0100000000000000000000000000000000000000000000000000000000900463ffffffff1680631371e334146100885780636df8d1be14610153578063acd7ec1f146101d9578063bd667c591461020a578063f4eae7c01461024f578063f5606b9714610298578063fe135ffa146102e1575b600080fd5b34801561009457600080fd5b50610151600480360381019080803560001916906020019092919080359060200190929190803590602001909291908035906020019082018035906020019080806020026020016040519081016040528093929190818152602001838360200280828437820191505050505050919291929080359060200190820180359060200190808060200260200160405190810160405280939291908181526020018383602002808284378201915050505050509192919290505050610367565b005b34801561015f57600080fd5b50610182600480360381019080803560001916906020019092919050505061048d565b6040518080602001828103825283818151815260200191508051906020019060200280838360005b838110156101c55780820151818401526020810190506101aa565b505050509050019250505060405180910390f35b3480156101e557600080fd5b506102086004803603810190808035600019169060200190929190505050610502565b005b34801561021657600080fd5b50610239600480360381019080803560001916906020019092919050505061053b565b6040518082815260200191505060405180910390f35b34801561025b57600080fd5b5061027e6004803603810190808035600019169060200190929190505050610562565b604051808215151515815260200191505060405180910390f35b3480156102a457600080fd5b506102c760048036038101908080356000191690602001909291905050506105a7565b604051808215151515815260200191505060405180910390f35b3480156102ed57600080fd5b5061031060048036038101908080356000191690602001909291905050506105f3565b6040518080602001828103825283818151815260200191508051906020019060200280838360005b83811015610353578082015181840152602081019050610338565b505050509050019250505060405180910390f35b600080905060e0604051908101604052806001151581526020016001151581526020018681526020018581526020018260018111156103a257fe5b815260200184815260200183815250600080886000191660001916815260200190815260200160002060008201518160000160006101000a81548160ff02191690831515021790555060208201518160000160016101000a81548160ff021916908315150217905550604082015181600101556060820151816002015560808201518160030160006101000a81548160ff0219169083600181111561044357fe5b021790555060a082015181600401908051906020019061046492919061066c565b5060c08201518160050190805190602001906104819291906106bf565b50905050505050505050565b606060008083600019166000191681526020019081526020016000206005018054806020026020016040519081016040528092919081815260200182805480156104f657602002820191906000526020600020905b8154815260200190600101908083116104e2575b50505050509050919050565b6000806000836000191660001916815260200190815260200160002060000160016101000a81548160ff02191690831515021790555050565b60008060008360001916600019168152602001908152602001600020600201549050919050565b6000806000836000191660001916815260200190815260200160002060000160019054906101000a900460ff161561059d57600190506105a2565b600090505b919050565b600060011515600080846000191660001916815260200190815260200160002060000160009054906101000a900460ff16151514156105e957600190506105ee565b600090505b919050565b6060600080836000191660001916815260200190815260200160002060040180548060200260200160405190810160405280929190818152602001828054801561066057602002820191906000526020600020905b81546000191681526020019060010190808311610648575b50505050509050919050565b8280548282559060005260206000209081019282156106ae579160200282015b828111156106ad57825182906000191690559160200191906001019061068c565b5b5090506106bb919061070c565b5090565b8280548282559060005260206000209081019282156106fb579160200282015b828111156106fa5782518255916020019190600101906106df565b5b5090506107089190610731565b5090565b61072e91905b8082111561072a576000816000905550600101610712565b5090565b90565b61075391905b8082111561074f576000816000905550600101610737565b5090565b905600a165627a7a7230582037540cf8c5c3af3ce7093d17bdda20ac1dc00fe412778f6e80849e8c8269216a0029",
  "source": "pragma solidity ^0.4.17;\n// written for Solidity version 0.4.18 and above that doesnt break functionality\n\ncontract Voting {\n     /* * * * * * * * * * * * * * * * * * * * * * * * * * * * * * * *\n     *  These functions perform transactions, editing the mappings *\n     * * * * * * * * * * * * * * * * * * * * * * * * * * * * * * * */\n    /*\n    function addCandidate(bytes32 name, bytes32 party) public {\n        candidateID is the return variable\n        uint candidateID = numCandidates++;\n        // Create new Candidate Struct with name and saves it to storage.\n        candidates[candidateID] = Candidate(name,party,true);\n        emit AddedCandidate(candidateID);\n    }\n\n    function vote(bytes32 uid, uint candidateID) public {\n        // checks if the struct exists for that candidate\n        if (candidates[candidateID].doesExist == true) {\n            uint voterID = numVoters++; //voterID is the return variable\n            voters[voterID] = Voter(uid,candidateID);\n        }\n    }\n    */\n    /* * * * * * * * * * * * * * * * * * * * * * * * * * \n     *  Getter Functions, marked by the key word \"view\" *\n     * * * * * * * * * * * * * * * * * * * * * * * * * */\n    \n\n    // finds the total amount of votes for a specific candidate by looping\n    // through voters \n    /*function totalVotes(uint candidateID) view public returns (uint) {\n        uint numOfVotes = 0; // we will return this\n        for (uint i = 0; i < numVoters; i++) {\n            // if the voter votes for this specific candidate, we increment the number\n            if (voters[i].candidateIDVote == candidateID) {\n                numOfVotes++;\n            }\n        }\n        return numOfVotes; \n    }\n    */\n\n\n    // contract constructor\n    constructor() public {\n    }\n\n    enum Restriction {None, Country}\n    struct Ballot {\n        bool exists;\n        bool active;\n        uint length;\n        uint numOfCands;\n        Restriction restriction;  // the restrictions that can be applied to voting\n        bytes32[] candidates;\n        uint[] voteCount;\n    }\n    mapping (bytes32 => Ballot) ballots; // unique ID that will be used to identify the Ballot\n\n    // a function to create a ballot\n    function createBallot(bytes32 ballotID, uint len, uint numOfCands, bytes32[] cands, uint[] votes) public { \n        Restriction rest = Restriction.None;\n        ballots[ballotID] = Ballot(true, true, len, numOfCands, rest, cands, votes);\n    }\n\n\n    /* SETTER FUNCTIONS */\n\n    // set ballot to be over\n    function setEndedBallot(bytes32 ballotID) public {\n        ballots[ballotID].active = false;\n    }\n    \n\n    /* CHECKING FUNCTIONS */\n\n    // a view function to see if a ballot exists\n    function confirmBallot(bytes32 ballotID) public view returns (bool) {\n        if (ballots[ballotID].exists == true)\n            return true;\n        else\n            return false;\n    }\n\n    // a vew function to see if a ballot is still active\n    function checkActiveBallot(bytes32 ballotID) public view returns (bool) {\n        if (ballots[ballotID].active)\n            return true;\n        else\n            return false;\n    }\n\n\n    /* GETTER FUNCTIONS */\n\n    // a view function of the length of candidate list\n    function getCandidateSize(bytes32 ballotID) public view returns (uint) {\n        return( ballots[ballotID].numOfCands);\n    }\n\n    // a view function to access a ballots candidates\n    function getCandidateInfo(bytes32 ballotID) public view returns (bytes32[]) {\n        return( ballots[ballotID].candidates);\n    }\n\n    // a view function to access a ballots candidates\n    function getVotingInfo(bytes32 ballotID) public view returns (uint[]) {\n        return( ballots[ballotID].voteCount);\n    }\n}\n",
  "sourcePath": "/home/guy/projects/cooper/blockchain/final/Ballot/dApp/contracts/Voting.sol",
  "compiler": {
    "name": "solc",
    "version": "0.4.23+commit.124ca40d.Emscripten.clang"
  },
  "schemaVersion": "2.0.0",
  "updatedAt": "2018-05-02T13:53:51.337Z"
}