{
  "contractName": "Voting",
  "abi": [
    {
      "inputs": [],
      "payable": false,
      "stateMutability": "nonpayable",
      "type": "constructor"
    },
    {
      "constant": false,
      "inputs": [
        {
          "name": "title",
          "type": "string"
        },
        {
          "name": "ballotID",
          "type": "bytes32"
        },
        {
          "name": "len",
          "type": "uint256"
        },
        {
          "name": "numOfCands",
          "type": "uint256"
        },
        {
          "name": "cands",
          "type": "bytes32[]"
        },
        {
          "name": "votes",
          "type": "uint256[]"
        }
      ],
      "name": "createBallot",
      "outputs": [],
      "payable": false,
      "stateMutability": "nonpayable",
      "type": "function"
    },
    {
      "constant": false,
      "inputs": [
        {
          "name": "ballotID",
          "type": "bytes32"
        }
      ],
      "name": "setEndedBallot",
      "outputs": [
        {
          "name": "",
          "type": "bool"
        }
      ],
      "payable": false,
      "stateMutability": "nonpayable",
      "type": "function"
    },
    {
      "constant": false,
      "inputs": [
        {
          "name": "ballotID",
          "type": "bytes32"
        },
        {
          "name": "index",
          "type": "uint256"
        }
      ],
      "name": "addVote",
      "outputs": [
        {
          "name": "",
          "type": "bool"
        }
      ],
      "payable": false,
      "stateMutability": "nonpayable",
      "type": "function"
    },
    {
      "constant": true,
      "inputs": [
        {
          "name": "ballotID",
          "type": "bytes32"
        }
      ],
      "name": "confirmBallot",
      "outputs": [
        {
          "name": "",
          "type": "bool"
        }
      ],
      "payable": false,
      "stateMutability": "view",
      "type": "function"
    },
    {
      "constant": true,
      "inputs": [
        {
          "name": "ballotID",
          "type": "bytes32"
        }
      ],
      "name": "checkActiveBallot",
      "outputs": [
        {
          "name": "",
          "type": "bool"
        }
      ],
      "payable": false,
      "stateMutability": "view",
      "type": "function"
    },
    {
      "constant": true,
      "inputs": [
        {
          "name": "ballotID",
          "type": "bytes32"
        }
      ],
      "name": "getCandidateSize",
      "outputs": [
        {
          "name": "",
          "type": "uint256"
        }
      ],
      "payable": false,
      "stateMutability": "view",
      "type": "function"
    },
    {
      "constant": true,
      "inputs": [
        {
          "name": "ballotID",
          "type": "bytes32"
        }
      ],
      "name": "getCandidateInfo",
      "outputs": [
        {
          "name": "",
          "type": "bytes32[]"
        }
      ],
      "payable": false,
      "stateMutability": "view",
      "type": "function"
    },
    {
      "constant": true,
      "inputs": [
        {
          "name": "ballotID",
          "type": "bytes32"
        }
      ],
      "name": "getVotingInfo",
      "outputs": [
        {
          "name": "",
          "type": "uint256[]"
        }
      ],
      "payable": false,
      "stateMutability": "view",
      "type": "function"
    },
    {
      "constant": true,
      "inputs": [
        {
          "name": "ballotID",
          "type": "bytes32"
        }
      ],
      "name": "getBallotTitle",
      "outputs": [
        {
          "name": "",
          "type": "string"
        }
      ],
      "payable": false,
      "stateMutability": "view",
      "type": "function"
    }
  ],
  "bytecode": "0x608060405234801561001057600080fd5b50610b8a806100206000396000f300608060405260043610610099576000357c0100000000000000000000000000000000000000000000000000000000900463ffffffff1680636814b5a41461009e57806369d2096e146101485780636df8d1be1461019b578063871f1a6d14610221578063acd7ec1f14610332578063bd667c591461037b578063f4eae7c0146103c0578063f5606b9714610409578063fe135ffa14610452575b600080fd5b3480156100aa57600080fd5b506100cd60048036038101908080356000191690602001909291905050506104d8565b6040518080602001828103825283818151815260200191508051906020019080838360005b8381101561010d5780820151818401526020810190506100f2565b50505050905090810190601f16801561013a5780820380516001836020036101000a031916815260200191505b509250505060405180910390f35b34801561015457600080fd5b50610181600480360381019080803560001916906020019092919080359060200190929190505050610597565b604051808215151515815260200191505060405180910390f35b3480156101a757600080fd5b506101ca60048036038101908080356000191690602001909291905050506105e3565b6040518080602001828103825283818151815260200191508051906020019060200280838360005b8381101561020d5780820151818401526020810190506101f2565b505050509050019250505060405180910390f35b34801561022d57600080fd5b50610330600480360381019080803590602001908201803590602001908080601f0160208091040260200160405190810160405280939291908181526020018383808284378201915050505050509192919290803560001916906020019092919080359060200190929190803590602001909291908035906020019082018035906020019080806020026020016040519081016040528093929190818152602001838360200280828437820191505050505050919291929080359060200190820180359060200190808060200260200160405190810160405280939291908181526020018383602002808284378201915050505050509192919290505050610658565b005b34801561033e57600080fd5b506103616004803603810190808035600019169060200190929190505050610807565b604051808215151515815260200191505060405180910390f35b34801561038757600080fd5b506103aa60048036038101908080356000191690602001909291905050506108c3565b6040518082815260200191505060405180910390f35b3480156103cc57600080fd5b506103ef60048036038101908080356000191690602001909291905050506108ea565b604051808215151515815260200191505060405180910390f35b34801561041557600080fd5b50610438600480360381019080803560001916906020019092919050505061092f565b604051808215151515815260200191505060405180910390f35b34801561045e57600080fd5b50610481600480360381019080803560001916906020019092919050505061097b565b6040518080602001828103825283818151815260200191508051906020019060200280838360005b838110156104c45780820151818401526020810190506104a9565b505050509050019250505060405180910390f35b606060008083600019166000191681526020019081526020016000206000018054600181600116156101000203166002900480601f01602080910402602001604051908101604052809291908181526020018280546001816001161561010002031660029004801561058b5780601f106105605761010080835404028352916020019161058b565b820191906000526020600020905b81548152906001019060200180831161056e57829003601f168201915b50505050509050919050565b60008060008460001916600019168152602001908152602001600020600601828154811015156105c357fe5b906000526020600020016000815480929190600101919050555092915050565b6060600080836000191660001916815260200190815260200160002060060180548060200260200160405190810160405280929190818152602001828054801561064c57602002820191906000526020600020905b815481526020019060010190808311610638575b50505050509050919050565b6000809050610120604051908101604052808881526020013373ffffffffffffffffffffffffffffffffffffffff1681526020016001151581526020016001151581526020018681526020018581526020018260018111156106b657fe5b815260200184815260200183815250600080886000191660001916815260200190815260200160002060008201518160000190805190602001906106fb9291906109f4565b5060208201518160010160006101000a81548173ffffffffffffffffffffffffffffffffffffffff021916908373ffffffffffffffffffffffffffffffffffffffff16021790555060408201518160010160146101000a81548160ff02191690831515021790555060608201518160010160156101000a81548160ff0219169083151502179055506080820151816002015560a0820151816003015560c08201518160040160006101000a81548160ff021916908360018111156107bb57fe5b021790555060e08201518160050190805190602001906107dc929190610a74565b506101008201518160060190805190602001906107fa929190610ac7565b5090505050505050505050565b6000806000836000191660001916815260200190815260200160002060010160009054906101000a900473ffffffffffffffffffffffffffffffffffffffff1673ffffffffffffffffffffffffffffffffffffffff163373ffffffffffffffffffffffffffffffffffffffff1614156108b9576000806000846000191660001916815260200190815260200160002060010160156101000a81548160ff021916908315150217905550600190506108be565b600090505b919050565b60008060008360001916600019168152602001908152602001600020600301549050919050565b6000806000836000191660001916815260200190815260200160002060010160159054906101000a900460ff1615610925576001905061092a565b600090505b919050565b600060011515600080846000191660001916815260200190815260200160002060010160149054906101000a900460ff16151514156109715760019050610976565b600090505b919050565b606060008083600019166000191681526020019081526020016000206005018054806020026020016040519081016040528092919081815260200182805480156109e857602002820191906000526020600020905b815460001916815260200190600101908083116109d0575b50505050509050919050565b828054600181600116156101000203166002900490600052602060002090601f016020900481019282601f10610a3557805160ff1916838001178555610a63565b82800160010185558215610a63579182015b82811115610a62578251825591602001919060010190610a47565b5b509050610a709190610b14565b5090565b828054828255906000526020600020908101928215610ab6579160200282015b82811115610ab5578251829060001916905591602001919060010190610a94565b5b509050610ac39190610b39565b5090565b828054828255906000526020600020908101928215610b03579160200282015b82811115610b02578251825591602001919060010190610ae7565b5b509050610b109190610b14565b5090565b610b3691905b80821115610b32576000816000905550600101610b1a565b5090565b90565b610b5b91905b80821115610b57576000816000905550600101610b3f565b5090565b905600a165627a7a72305820f693b70dbdd459703551bae87dfa341108ad9c85a50b1d35be185da6ea1601db0029",
  "source": "pragma solidity ^0.4.17;\n// written for Solidity version 0.4.18 and above that doesnt break functionality\n\ncontract Voting {\n     /* * * * * * * * * * * * * * * * * * * * * * * * * * * * * * * *\n     *  These functions perform transactions, editing the mappings *\n     * * * * * * * * * * * * * * * * * * * * * * * * * * * * * * * */\n    /*\n    function addCandidate(bytes32 name, bytes32 party) public {\n        candidateID is the return variable\n        uint candidateID = numCandidates++;\n        // Create new Candidate Struct with name and saves it to storage.\n        candidates[candidateID] = Candidate(name,party,true);\n        emit AddedCandidate(candidateID);\n    }\n\n    function vote(bytes32 uid, uint candidateID) public {\n        // checks if the struct exists for that candidate\n        if (candidates[candidateID].doesExist == true) {\n            uint voterID = numVoters++; //voterID is the return variable\n            voters[voterID] = Voter(uid,candidateID);\n        }\n    }\n    */\n    /* * * * * * * * * * * * * * * * * * * * * * * * * * \n     *  Getter Functions, marked by the key word \"view\" *\n     * * * * * * * * * * * * * * * * * * * * * * * * * */\n    \n\n    // finds the total amount of votes for a specific candidate by looping\n    // through voters \n    /*function totalVotes(uint candidateID) view public returns (uint) {\n        uint numOfVotes = 0; // we will return this\n        for (uint i = 0; i < numVoters; i++) {\n            // if the voter votes for this specific candidate, we increment the number\n            if (voters[i].candidateIDVote == candidateID) {\n                numOfVotes++;\n            }\n        }\n        return numOfVotes; \n    }\n    */\n\n\n    // contract constructor\n    constructor() public {\n    }\n\n    enum Restriction {None, Country}\n    struct Ballot {\n        string title;\n        address creator;\n        bool exists;\n        bool active;\n        uint length;\n        uint numOfCands;\n        Restriction restriction;  // the restrictions that can be applied to voting\n        bytes32[] candidates;\n        uint[] voteCount;\n    }\n    mapping (bytes32 => Ballot) ballots; // unique ID that will be used to identify the Ballot\n\n    // a function to create a ballot\n    function createBallot(string title, bytes32 ballotID, uint len, uint numOfCands, bytes32[] cands, uint[] votes) public { \n        Restriction rest = Restriction.None;\n        ballots[ballotID] = Ballot(title, msg.sender, true, true, len, numOfCands, rest, cands, votes);\n    }\n\n\n    /* SETTER FUNCTIONS */\n\n    // set ballot to be over\n    function setEndedBallot(bytes32 ballotID) public returns (bool) {\n        if (msg.sender == ballots[ballotID].creator) {\n            ballots[ballotID].active = false;\n            return true;\n        }\n        else\n            return false;\n    }\n\n    // add vote\n    function addVote(bytes32 ballotID, uint index) public returns (bool) {\n        ballots[ballotID].voteCount[index]++;\n    }\n    \n    /* CHECKING FUNCTIONS */\n\n    // a view function to see if a ballot exists\n    function confirmBallot(bytes32 ballotID) public view returns (bool) {\n        if (ballots[ballotID].exists == true)\n            return true;\n        else\n            return false;\n    }\n\n    // a vew function to see if a ballot is still active\n    function checkActiveBallot(bytes32 ballotID) public view returns (bool) {\n        if (ballots[ballotID].active)\n            return true;\n        else\n            return false;\n    }\n\n\n    /* GETTER FUNCTIONS */\n\n    // a view function of the length of candidate list\n    function getCandidateSize(bytes32 ballotID) public view returns (uint) {\n        return( ballots[ballotID].numOfCands);\n    }\n\n    // a view function to access a ballots candidates\n    function getCandidateInfo(bytes32 ballotID) public view returns (bytes32[]) {\n        return( ballots[ballotID].candidates);\n    }\n\n    // a view function to access a ballots candidates\n    function getVotingInfo(bytes32 ballotID) public view returns (uint[]) {\n        return( ballots[ballotID].voteCount);\n    }\n\n    // a view function to get a title of the ballot\n    function getBallotTitle(bytes32 ballotID) public view returns (string) {\n        return(ballots[ballotID].title);\n    }\n}\n",
  "sourcePath": "/home/guy/projects/cooper/blockchain/final/Ballot/dApp/contracts/Voting.sol",
  "compiler": {
    "name": "solc",
    "version": "0.4.23+commit.124ca40d.Emscripten.clang"
  },
  "schemaVersion": "2.0.0",
  "updatedAt": "2018-05-03T04:32:35.006Z"
}