{
  "contractName": "Voting",
  "abi": [
    {
      "inputs": [],
      "payable": false,
      "stateMutability": "nonpayable",
      "type": "constructor"
    },
    {
      "anonymous": false,
      "inputs": [
        {
          "indexed": false,
          "name": "candidateID",
          "type": "uint256"
        }
      ],
      "name": "AddedCandidate",
      "type": "event"
    },
    {
      "constant": false,
      "inputs": [
        {
          "name": "ballotID",
          "type": "bytes32"
        },
        {
          "name": "len",
          "type": "uint256"
        },
        {
          "name": "numcands",
          "type": "uint256"
        },
        {
          "name": "cands",
          "type": "bytes32[]"
        },
        {
          "name": "votes",
          "type": "uint256[]"
        }
      ],
      "name": "createBallot",
      "outputs": [],
      "payable": false,
      "stateMutability": "nonpayable",
      "type": "function"
    },
    {
      "constant": true,
      "inputs": [
        {
          "name": "ballotID",
          "type": "bytes32"
        }
      ],
      "name": "getBallotInfo",
      "outputs": [
        {
          "name": "",
          "type": "uint256"
        },
        {
          "name": "",
          "type": "uint8"
        },
        {
          "name": "",
          "type": "uint256"
        }
      ],
      "payable": false,
      "stateMutability": "view",
      "type": "function"
    },
    {
      "constant": true,
      "inputs": [
        {
          "name": "ballotID",
          "type": "bytes32"
        },
        {
          "name": "candidateID",
          "type": "uint256"
        }
      ],
      "name": "getCandidateInfo",
      "outputs": [
        {
          "name": "",
          "type": "bytes32"
        }
      ],
      "payable": false,
      "stateMutability": "view",
      "type": "function"
    }
  ],
  "bytecode": "0x608060405234801561001057600080fd5b50610481806100206000396000f300608060405260043610610057576000357c0100000000000000000000000000000000000000000000000000000000900463ffffffff1680631371e3341461005c57806366514c2d14610127578063836de47014610188575b600080fd5b34801561006857600080fd5b506101256004803603810190808035600019169060200190929190803590602001909291908035906020019092919080359060200190820180359060200190808060200260200160405190810160405280939291908181526020018383602002808284378201915050505050509192919290803590602001908201803590602001908080602002602001604051908101604052809392919081815260200183836020028082843782019150505050505091929192905050506101df565b005b34801561013357600080fd5b5061015660048036038101908080356000191690602001909291905050506102b3565b6040518084815260200183600181111561016c57fe5b60ff168152602001828152602001935050505060405180910390f35b34801561019457600080fd5b506101c160048036038101908080356000191690602001909291908035906020019092919050505061032c565b60405180826000191660001916815260200191505060405180910390f35b600080905060a06040519081016040528086815260200182600181111561020257fe5b81526020018581526020018481526020018381525060008088600019166000191681526020019081526020016000206000820151816000015560208201518160010160006101000a81548160ff0219169083600181111561025f57fe5b021790555060408201518160020155606082015181600301908051906020019061028a92919061036b565b5060808201518160040190805190602001906102a79291906103be565b50905050505050505050565b6000806000806000856000191660001916815260200190815260200160002060000154600080866000191660001916815260200190815260200160002060010160009054906101000a900460ff166000808760001916600019168152602001908152602001600020600201549250925092509193909250565b600080600084600019166000191681526020019081526020016000206003018281548110151561035857fe5b9060005260206000200154905092915050565b8280548282559060005260206000209081019282156103ad579160200282015b828111156103ac57825182906000191690559160200191906001019061038b565b5b5090506103ba919061040b565b5090565b8280548282559060005260206000209081019282156103fa579160200282015b828111156103f95782518255916020019190600101906103de565b5b5090506104079190610430565b5090565b61042d91905b80821115610429576000816000905550600101610411565b5090565b90565b61045291905b8082111561044e576000816000905550600101610436565b5090565b905600a165627a7a72305820db4836df21f42e03dcae42f64e467ef7a5130d3619b06aedcb823a4efb630a590029",
  "source": "pragma solidity ^0.4.17;\n// written for Solidity version 0.4.18 and above that doesnt break functionality\n\ncontract Voting {\n    // an event that is called whenever a Candidate is added so the frontend could\n    // appropriately display the candidate with the right element id (it is used\n    // to vote for the candidate, since it is one of arguments for the function \"vote\")\n    event AddedCandidate(uint candidateID);\n\n\n\n    /* * * * * * * * * * * * * * * * * * * * * * * * * * * * * * * *\n     *  These functions perform transactions, editing the mappings *\n     * * * * * * * * * * * * * * * * * * * * * * * * * * * * * * * */\n    /*\n    function addCandidate(bytes32 name, bytes32 party) public {\n        candidateID is the return variable\n        uint candidateID = numCandidates++;\n        // Create new Candidate Struct with name and saves it to storage.\n        candidates[candidateID] = Candidate(name,party,true);\n        emit AddedCandidate(candidateID);\n    }\n\n    function vote(bytes32 uid, uint candidateID) public {\n        // checks if the struct exists for that candidate\n        if (candidates[candidateID].doesExist == true) {\n            uint voterID = numVoters++; //voterID is the return variable\n            voters[voterID] = Voter(uid,candidateID);\n        }\n    }\n    */\n    /* * * * * * * * * * * * * * * * * * * * * * * * * * \n     *  Getter Functions, marked by the key word \"view\" *\n     * * * * * * * * * * * * * * * * * * * * * * * * * */\n    \n\n    // finds the total amount of votes for a specific candidate by looping\n    // through voters \n    /*function totalVotes(uint candidateID) view public returns (uint) {\n        uint numOfVotes = 0; // we will return this\n        for (uint i = 0; i < numVoters; i++) {\n            // if the voter votes for this specific candidate, we increment the number\n            if (voters[i].candidateIDVote == candidateID) {\n                numOfVotes++;\n            }\n        }\n        return numOfVotes; \n    }\n    */\n\n\n    /* My added functions for uPort integration and accessing a ballot (basicall,\n    from the beginning to the point that the person actually gets to vote)  */\n\n    // contract constructor\n    constructor() public {\n    }\n\n    enum Restriction {None, Country}\n    struct Ballot {\n        uint length;\n        Restriction restriction;  // the restrictions that can be applied to voting\n        uint numCandidates;\n        bytes32[] candidates;\n        uint[] voteCount;\n    }\n    mapping (bytes32 => Ballot) ballots; // unique ID that will be used to identify the Ballot\n\n    // a function to create a ballot\n    function createBallot(bytes32 ballotID, uint len, uint numcands, bytes32[] cands, uint[] votes) public { \n        Restriction rest = Restriction.None;\n        ballots[ballotID] = Ballot(len, rest, numcands, cands, votes);\n    }\n\n    // a view function to find a ballot\n    function getBallotInfo(bytes32 ballotID) public view returns (uint, Restriction, uint ) {\n        return( ballots[ballotID].length, ballots[ballotID].restriction, ballots[ballotID].numCandidates);\n    }\n\n    // a view function to access a ballots candidates\n    function getCandidateInfo(bytes32 ballotID, uint candidateID) public view returns (bytes32) {\n        return( ballots[ballotID].candidates[candidateID]);\n    }\n}\n",
  "sourcePath": "/home/guy/projects/cooper/blockchain/final/Ballot/dApp/contracts/Voting.sol",
  "compiler": {
    "name": "solc",
    "version": "0.4.23+commit.124ca40d.Emscripten.clang"
  },
  "schemaVersion": "2.0.0",
  "updatedAt": "2018-05-01T14:45:23.440Z"
}