{
  "contractName": "Voting",
  "abi": [
    {
      "inputs": [],
      "payable": false,
      "stateMutability": "nonpayable",
      "type": "constructor"
    },
    {
      "constant": false,
      "inputs": [
        {
          "name": "ballotID",
          "type": "bytes32"
        },
        {
          "name": "len",
          "type": "uint256"
        },
        {
          "name": "numOfCands",
          "type": "uint256"
        },
        {
          "name": "cands",
          "type": "bytes32[]"
        },
        {
          "name": "votes",
          "type": "uint256[]"
        }
      ],
      "name": "createBallot",
      "outputs": [],
      "payable": false,
      "stateMutability": "nonpayable",
      "type": "function"
    },
    {
      "constant": false,
      "inputs": [
        {
          "name": "ballotID",
          "type": "bytes32"
        }
      ],
      "name": "setEndedBallot",
      "outputs": [
        {
          "name": "",
          "type": "bool"
        }
      ],
      "payable": false,
      "stateMutability": "nonpayable",
      "type": "function"
    },
    {
      "constant": true,
      "inputs": [
        {
          "name": "ballotID",
          "type": "bytes32"
        }
      ],
      "name": "confirmBallot",
      "outputs": [
        {
          "name": "",
          "type": "bool"
        }
      ],
      "payable": false,
      "stateMutability": "view",
      "type": "function"
    },
    {
      "constant": true,
      "inputs": [
        {
          "name": "ballotID",
          "type": "bytes32"
        }
      ],
      "name": "checkActiveBallot",
      "outputs": [
        {
          "name": "",
          "type": "bool"
        }
      ],
      "payable": false,
      "stateMutability": "view",
      "type": "function"
    },
    {
      "constant": true,
      "inputs": [
        {
          "name": "ballotID",
          "type": "bytes32"
        }
      ],
      "name": "getCandidateSize",
      "outputs": [
        {
          "name": "",
          "type": "uint256"
        }
      ],
      "payable": false,
      "stateMutability": "view",
      "type": "function"
    },
    {
      "constant": true,
      "inputs": [
        {
          "name": "ballotID",
          "type": "bytes32"
        }
      ],
      "name": "getCandidateInfo",
      "outputs": [
        {
          "name": "",
          "type": "bytes32[]"
        }
      ],
      "payable": false,
      "stateMutability": "view",
      "type": "function"
    },
    {
      "constant": true,
      "inputs": [
        {
          "name": "ballotID",
          "type": "bytes32"
        }
      ],
      "name": "getVotingInfo",
      "outputs": [
        {
          "name": "",
          "type": "uint256[]"
        }
      ],
      "payable": false,
      "stateMutability": "view",
      "type": "function"
    }
  ],
  "bytecode": "0x608060405234801561001057600080fd5b50610881806100206000396000f300608060405260043610610083576000357c0100000000000000000000000000000000000000000000000000000000900463ffffffff1680631371e334146100885780636df8d1be14610153578063acd7ec1f146101d9578063bd667c5914610222578063f4eae7c014610267578063f5606b97146102b0578063fe135ffa146102f9575b600080fd5b34801561009457600080fd5b5061015160048036038101908080356000191690602001909291908035906020019092919080359060200190929190803590602001908201803590602001908080602002602001604051908101604052809392919081815260200183836020028082843782019150505050505091929192908035906020019082018035906020019080806020026020016040519081016040528093929190818152602001838360200280828437820191505050505050919291929050505061037f565b005b34801561015f57600080fd5b506101826004803603810190808035600019169060200190929190505050610509565b6040518080602001828103825283818151815260200191508051906020019060200280838360005b838110156101c55780820151818401526020810190506101aa565b505050509050019250505060405180910390f35b3480156101e557600080fd5b50610208600480360381019080803560001916906020019092919050505061057e565b604051808215151515815260200191505060405180910390f35b34801561022e57600080fd5b50610251600480360381019080803560001916906020019092919050505061063a565b6040518082815260200191505060405180910390f35b34801561027357600080fd5b506102966004803603810190808035600019169060200190929190505050610661565b604051808215151515815260200191505060405180910390f35b3480156102bc57600080fd5b506102df60048036038101908080356000191690602001909291905050506106a6565b604051808215151515815260200191505060405180910390f35b34801561030557600080fd5b5061032860048036038101908080356000191690602001909291905050506106f2565b6040518080602001828103825283818151815260200191508051906020019060200280838360005b8381101561036b578082015181840152602081019050610350565b505050509050019250505060405180910390f35b6000809050610100604051908101604052803373ffffffffffffffffffffffffffffffffffffffff1681526020016001151581526020016001151581526020018681526020018581526020018260018111156103d757fe5b815260200184815260200183815250600080886000191660001916815260200190815260200160002060008201518160000160006101000a81548173ffffffffffffffffffffffffffffffffffffffff021916908373ffffffffffffffffffffffffffffffffffffffff16021790555060208201518160000160146101000a81548160ff02191690831515021790555060408201518160000160156101000a81548160ff021916908315150217905550606082015181600101556080820151816002015560a08201518160030160006101000a81548160ff021916908360018111156104bf57fe5b021790555060c08201518160040190805190602001906104e092919061076b565b5060e08201518160050190805190602001906104fd9291906107be565b50905050505050505050565b6060600080836000191660001916815260200190815260200160002060050180548060200260200160405190810160405280929190818152602001828054801561057257602002820191906000526020600020905b81548152602001906001019080831161055e575b50505050509050919050565b6000806000836000191660001916815260200190815260200160002060000160009054906101000a900473ffffffffffffffffffffffffffffffffffffffff1673ffffffffffffffffffffffffffffffffffffffff163373ffffffffffffffffffffffffffffffffffffffff161415610630576000806000846000191660001916815260200190815260200160002060000160156101000a81548160ff02191690831515021790555060019050610635565b600090505b919050565b60008060008360001916600019168152602001908152602001600020600201549050919050565b6000806000836000191660001916815260200190815260200160002060000160159054906101000a900460ff161561069c57600190506106a1565b600090505b919050565b600060011515600080846000191660001916815260200190815260200160002060000160149054906101000a900460ff16151514156106e857600190506106ed565b600090505b919050565b6060600080836000191660001916815260200190815260200160002060040180548060200260200160405190810160405280929190818152602001828054801561075f57602002820191906000526020600020905b81546000191681526020019060010190808311610747575b50505050509050919050565b8280548282559060005260206000209081019282156107ad579160200282015b828111156107ac57825182906000191690559160200191906001019061078b565b5b5090506107ba919061080b565b5090565b8280548282559060005260206000209081019282156107fa579160200282015b828111156107f95782518255916020019190600101906107de565b5b5090506108079190610830565b5090565b61082d91905b80821115610829576000816000905550600101610811565b5090565b90565b61085291905b8082111561084e576000816000905550600101610836565b5090565b905600a165627a7a7230582083b8248fcb3bfc5ee7acef95c2a605ef6c52fb11934b9a2b911d6f5a22bb16b90029",
  "source": "pragma solidity ^0.4.17;\n// written for Solidity version 0.4.18 and above that doesnt break functionality\n\ncontract Voting {\n     /* * * * * * * * * * * * * * * * * * * * * * * * * * * * * * * *\n     *  These functions perform transactions, editing the mappings *\n     * * * * * * * * * * * * * * * * * * * * * * * * * * * * * * * */\n    /*\n    function addCandidate(bytes32 name, bytes32 party) public {\n        candidateID is the return variable\n        uint candidateID = numCandidates++;\n        // Create new Candidate Struct with name and saves it to storage.\n        candidates[candidateID] = Candidate(name,party,true);\n        emit AddedCandidate(candidateID);\n    }\n\n    function vote(bytes32 uid, uint candidateID) public {\n        // checks if the struct exists for that candidate\n        if (candidates[candidateID].doesExist == true) {\n            uint voterID = numVoters++; //voterID is the return variable\n            voters[voterID] = Voter(uid,candidateID);\n        }\n    }\n    */\n    /* * * * * * * * * * * * * * * * * * * * * * * * * * \n     *  Getter Functions, marked by the key word \"view\" *\n     * * * * * * * * * * * * * * * * * * * * * * * * * */\n    \n\n    // finds the total amount of votes for a specific candidate by looping\n    // through voters \n    /*function totalVotes(uint candidateID) view public returns (uint) {\n        uint numOfVotes = 0; // we will return this\n        for (uint i = 0; i < numVoters; i++) {\n            // if the voter votes for this specific candidate, we increment the number\n            if (voters[i].candidateIDVote == candidateID) {\n                numOfVotes++;\n            }\n        }\n        return numOfVotes; \n    }\n    */\n\n\n    // contract constructor\n    constructor() public {\n    }\n\n    enum Restriction {None, Country}\n    struct Ballot {\n        address creator;\n        bool exists;\n        bool active;\n        uint length;\n        uint numOfCands;\n        Restriction restriction;  // the restrictions that can be applied to voting\n        bytes32[] candidates;\n        uint[] voteCount;\n    }\n    mapping (bytes32 => Ballot) ballots; // unique ID that will be used to identify the Ballot\n\n    // a function to create a ballot\n    function createBallot(bytes32 ballotID, uint len, uint numOfCands, bytes32[] cands, uint[] votes) public { \n        Restriction rest = Restriction.None;\n        ballots[ballotID] = Ballot(msg.sender, true, true, len, numOfCands, rest, cands, votes);\n    }\n\n\n    /* SETTER FUNCTIONS */\n\n    // set ballot to be over\n    function setEndedBallot(bytes32 ballotID) public returns (bool) {\n        if (msg.sender == ballots[ballotID].creator) {\n            ballots[ballotID].active = false;\n            return true;\n        }\n        else\n            return false;\n    }\n    \n\n    /* CHECKING FUNCTIONS */\n\n    // a view function to see if a ballot exists\n    function confirmBallot(bytes32 ballotID) public view returns (bool) {\n        if (ballots[ballotID].exists == true)\n            return true;\n        else\n            return false;\n    }\n\n    // a vew function to see if a ballot is still active\n    function checkActiveBallot(bytes32 ballotID) public view returns (bool) {\n        if (ballots[ballotID].active)\n            return true;\n        else\n            return false;\n    }\n\n\n    /* GETTER FUNCTIONS */\n\n    // a view function of the length of candidate list\n    function getCandidateSize(bytes32 ballotID) public view returns (uint) {\n        return( ballots[ballotID].numOfCands);\n    }\n\n    // a view function to access a ballots candidates\n    function getCandidateInfo(bytes32 ballotID) public view returns (bytes32[]) {\n        return( ballots[ballotID].candidates);\n    }\n\n    // a view function to access a ballots candidates\n    function getVotingInfo(bytes32 ballotID) public view returns (uint[]) {\n        return( ballots[ballotID].voteCount);\n    }\n}\n",
  "sourcePath": "/home/guy/projects/cooper/blockchain/final/Ballot/dApp/contracts/Voting.sol",
  "compiler": {
    "name": "solc",
    "version": "0.4.23+commit.124ca40d.Emscripten.clang"
  },
  "schemaVersion": "2.0.0",
  "updatedAt": "2018-05-02T14:41:20.661Z"
}