{
  "contractName": "Voting",
  "abi": [
    {
      "constant": false,
      "inputs": [
        {
          "name": "title",
          "type": "string"
        },
        {
          "name": "ID",
          "type": "bytes32"
        },
        {
          "name": "len",
          "type": "uint256"
        },
        {
          "name": "num",
          "type": "uint256"
        },
        {
          "name": "cands",
          "type": "bytes32[]"
        },
        {
          "name": "votes",
          "type": "uint256[]"
        },
        {
          "name": "rest",
          "type": "bool"
        },
        {
          "name": "country",
          "type": "bytes32"
        }
      ],
      "name": "createBallot",
      "outputs": [],
      "payable": false,
      "stateMutability": "nonpayable",
      "type": "function"
    },
    {
      "constant": false,
      "inputs": [
        {
          "name": "ballotID",
          "type": "bytes32"
        }
      ],
      "name": "setEndedBallot",
      "outputs": [
        {
          "name": "",
          "type": "bool"
        }
      ],
      "payable": false,
      "stateMutability": "nonpayable",
      "type": "function"
    },
    {
      "constant": false,
      "inputs": [
        {
          "name": "ballotID",
          "type": "bytes32"
        },
        {
          "name": "index",
          "type": "uint256"
        }
      ],
      "name": "addVote",
      "outputs": [
        {
          "name": "",
          "type": "bool"
        }
      ],
      "payable": false,
      "stateMutability": "nonpayable",
      "type": "function"
    },
    {
      "constant": true,
      "inputs": [
        {
          "name": "ballotID",
          "type": "bytes32"
        }
      ],
      "name": "confirmBallot",
      "outputs": [
        {
          "name": "",
          "type": "bool"
        }
      ],
      "payable": false,
      "stateMutability": "view",
      "type": "function"
    },
    {
      "constant": true,
      "inputs": [
        {
          "name": "ballotID",
          "type": "bytes32"
        }
      ],
      "name": "checkActiveBallot",
      "outputs": [
        {
          "name": "",
          "type": "bool"
        }
      ],
      "payable": false,
      "stateMutability": "view",
      "type": "function"
    },
    {
      "constant": true,
      "inputs": [
        {
          "name": "ballotID",
          "type": "bytes32"
        }
      ],
      "name": "getCandidateSize",
      "outputs": [
        {
          "name": "",
          "type": "uint256"
        }
      ],
      "payable": false,
      "stateMutability": "view",
      "type": "function"
    },
    {
      "constant": true,
      "inputs": [
        {
          "name": "ballotID",
          "type": "bytes32"
        }
      ],
      "name": "getBallotRestriction",
      "outputs": [
        {
          "name": "",
          "type": "bool"
        }
      ],
      "payable": false,
      "stateMutability": "view",
      "type": "function"
    },
    {
      "constant": true,
      "inputs": [
        {
          "name": "ballotID",
          "type": "bytes32"
        }
      ],
      "name": "getBallotCountry",
      "outputs": [
        {
          "name": "",
          "type": "bytes32"
        }
      ],
      "payable": false,
      "stateMutability": "view",
      "type": "function"
    },
    {
      "constant": true,
      "inputs": [
        {
          "name": "ballotID",
          "type": "bytes32"
        }
      ],
      "name": "getEndTime",
      "outputs": [
        {
          "name": "",
          "type": "uint256"
        }
      ],
      "payable": false,
      "stateMutability": "view",
      "type": "function"
    },
    {
      "constant": true,
      "inputs": [
        {
          "name": "ballotID",
          "type": "bytes32"
        }
      ],
      "name": "getCandidateInfo",
      "outputs": [
        {
          "name": "",
          "type": "bytes32[]"
        }
      ],
      "payable": false,
      "stateMutability": "view",
      "type": "function"
    },
    {
      "constant": true,
      "inputs": [
        {
          "name": "ballotID",
          "type": "bytes32"
        }
      ],
      "name": "getVotingInfo",
      "outputs": [
        {
          "name": "",
          "type": "uint256[]"
        }
      ],
      "payable": false,
      "stateMutability": "view",
      "type": "function"
    },
    {
      "constant": true,
      "inputs": [
        {
          "name": "ballotID",
          "type": "bytes32"
        }
      ],
      "name": "getBallotTitle",
      "outputs": [
        {
          "name": "",
          "type": "string"
        }
      ],
      "payable": false,
      "stateMutability": "view",
      "type": "function"
    }
  ],
  "bytecode": "0x608060405234801561001057600080fd5b50610d27806100206000396000f3006080604052600436106100ba576000357c0100000000000000000000000000000000000000000000000000000000900463ffffffff1680636814b5a4146100bf57806369d2096e146101695780636df8d1be146101bc57806381cd671c14610242578063acd7ec1f1461028f578063b11a48b5146102d8578063b1b4df3214610403578063bd667c591461044c578063eb28322e14610491578063f4eae7c0146104d6578063f5606b971461051f578063fe135ffa14610568575b600080fd5b3480156100cb57600080fd5b506100ee60048036038101908080356000191690602001909291905050506105ee565b6040518080602001828103825283818151815260200191508051906020019080838360005b8381101561012e578082015181840152602081019050610113565b50505050905090810190601f16801561015b5780820380516001836020036101000a031916815260200191505b509250505060405180910390f35b34801561017557600080fd5b506101a26004803603810190808035600019169060200190929190803590602001909291905050506106ad565b604051808215151515815260200191505060405180910390f35b3480156101c857600080fd5b506101eb60048036038101908080356000191690602001909291905050506106f9565b6040518080602001828103825283818151815260200191508051906020019060200280838360005b8381101561022e578082015181840152602081019050610213565b505050509050019250505060405180910390f35b34801561024e57600080fd5b50610271600480360381019080803560001916906020019092919050505061076e565b60405180826000191660001916815260200191505060405180910390f35b34801561029b57600080fd5b506102be6004803603810190808035600019169060200190929190505050610795565b604051808215151515815260200191505060405180910390f35b3480156102e457600080fd5b50610401600480360381019080803590602001908201803590602001908080601f01602080910402602001604051908101604052809392919081815260200183838082843782019150505050505091929192908035600019169060200190929190803590602001909291908035906020019092919080359060200190820180359060200190808060200260200160405190810160405280939291908181526020018383602002808284378201915050505050509192919290803590602001908201803590602001908080602002602001604051908101604052809392919081815260200183836020028082843782019150505050505091929192908035151590602001909291908035600019169060200190929190505050610851565b005b34801561040f57600080fd5b506104326004803603810190808035600019169060200190929190505050610a05565b604051808215151515815260200191505060405180910390f35b34801561045857600080fd5b5061047b6004803603810190808035600019169060200190929190505050610a39565b6040518082815260200191505060405180910390f35b34801561049d57600080fd5b506104c06004803603810190808035600019169060200190929190505050610a60565b6040518082815260200191505060405180910390f35b3480156104e257600080fd5b506105056004803603810190808035600019169060200190929190505050610a87565b604051808215151515815260200191505060405180910390f35b34801561052b57600080fd5b5061054e6004803603810190808035600019169060200190929190505050610acc565b604051808215151515815260200191505060405180910390f35b34801561057457600080fd5b506105976004803603810190808035600019169060200190929190505050610b18565b6040518080602001828103825283818151815260200191508051906020019060200280838360005b838110156105da5780820151818401526020810190506105bf565b505050509050019250505060405180910390f35b606060008083600019166000191681526020019081526020016000206000018054600181600116156101000203166002900480601f0160208091040260200160405190810160405280929190818152602001828054600181600116156101000203166002900480156106a15780601f10610676576101008083540402835291602001916106a1565b820191906000526020600020905b81548152906001019060200180831161068457829003601f168201915b50505050509050919050565b60008060008460001916600019168152602001908152602001600020600701828154811015156106d957fe5b906000526020600020016000815480929190600101919050555092915050565b6060600080836000191660001916815260200190815260200160002060070180548060200260200160405190810160405280929190818152602001828054801561076257602002820191906000526020600020905b81548152602001906001019080831161074e575b50505050509050919050565b60008060008360001916600019168152602001908152602001600020600501549050919050565b6000806000836000191660001916815260200190815260200160002060010160009054906101000a900473ffffffffffffffffffffffffffffffffffffffff1673ffffffffffffffffffffffffffffffffffffffff163373ffffffffffffffffffffffffffffffffffffffff161415610847576000806000846000191660001916815260200190815260200160002060010160156101000a81548160ff0219169083151502179055506001905061084c565b600090505b919050565b610140604051908101604052808981526020013373ffffffffffffffffffffffffffffffffffffffff16815260200160011515815260200160011515815260200187815260200186815260200183151581526020018260001916815260200185815260200184815250600080896000191660001916815260200190815260200160002060008201518160000190805190602001906108f0929190610b91565b5060208201518160010160006101000a81548173ffffffffffffffffffffffffffffffffffffffff021916908373ffffffffffffffffffffffffffffffffffffffff16021790555060408201518160010160146101000a81548160ff02191690831515021790555060608201518160010160156101000a81548160ff0219169083151502179055506080820151816002015560a0820151816003015560c08201518160040160006101000a81548160ff02191690831515021790555060e082015181600501906000191690556101008201518160060190805190602001906109d9929190610c11565b506101208201518160070190805190602001906109f7929190610c64565b509050505050505050505050565b6000806000836000191660001916815260200190815260200160002060040160009054906101000a900460ff169050919050565b60008060008360001916600019168152602001908152602001600020600301549050919050565b60008060008360001916600019168152602001908152602001600020600201549050919050565b6000806000836000191660001916815260200190815260200160002060010160159054906101000a900460ff1615610ac25760019050610ac7565b600090505b919050565b600060011515600080846000191660001916815260200190815260200160002060010160149054906101000a900460ff1615151415610b0e5760019050610b13565b600090505b919050565b60606000808360001916600019168152602001908152602001600020600601805480602002602001604051908101604052809291908181526020018280548015610b8557602002820191906000526020600020905b81546000191681526020019060010190808311610b6d575b50505050509050919050565b828054600181600116156101000203166002900490600052602060002090601f016020900481019282601f10610bd257805160ff1916838001178555610c00565b82800160010185558215610c00579182015b82811115610bff578251825591602001919060010190610be4565b5b509050610c0d9190610cb1565b5090565b828054828255906000526020600020908101928215610c53579160200282015b82811115610c52578251829060001916905591602001919060010190610c31565b5b509050610c609190610cd6565b5090565b828054828255906000526020600020908101928215610ca0579160200282015b82811115610c9f578251825591602001919060010190610c84565b5b509050610cad9190610cb1565b5090565b610cd391905b80821115610ccf576000816000905550600101610cb7565b5090565b90565b610cf891905b80821115610cf4576000816000905550600101610cdc565b5090565b905600a165627a7a72305820bfdd307ecbd8ab779b565467337b87e35f504f99b2a923a8ad786f9601dc11b00029",
  "source": "pragma solidity ^0.4.17;\n// written for Solidity version 0.4.18 and above that doesnt break functionality\n\ncontract Voting {\n\n    struct Ballot {\n        string title;\n        address creator;\n        bool exists;\n        bool active;\n        uint length;\n        uint numOfCands;\n        bool restriction;  // the restrictions that can be applied to voting\n        bytes32 country;\n        bytes32[] candidates;\n        uint[] voteCount;\n    }\n    mapping (bytes32 => Ballot) ballots; // unique ID that will be used to identify the Ballot\n\n    // a function to create a ballot\n    function createBallot(string title, bytes32 ID, uint len, uint num, bytes32[] cands, uint[] votes, bool rest, bytes32 country) public { \n        ballots[ID] = Ballot(title, msg.sender, true, true, len, num, rest, country, cands, votes);\n    }\n\n\n    /* SETTER FUNCTIONS */\n\n    // set ballot to be over\n    function setEndedBallot(bytes32 ballotID) public returns (bool) {\n        if (msg.sender == ballots[ballotID].creator) {\n            ballots[ballotID].active = false;\n            return true;\n        }\n        else\n            return false;\n    }\n\n    // add vote\n    function addVote(bytes32 ballotID, uint index) public returns (bool) {\n        ballots[ballotID].voteCount[index]++;\n    }\n    \n    /* CHECKING FUNCTIONS */\n\n    // a view function to see if a ballot exists\n    function confirmBallot(bytes32 ballotID) public view returns (bool) {\n        if (ballots[ballotID].exists == true)\n            return true;\n        else\n            return false;\n    }\n\n    // a vew function to see if a ballot is still active\n    function checkActiveBallot(bytes32 ballotID) public view returns (bool) {\n        if (ballots[ballotID].active)\n            return true;\n        else\n            return false;\n    }\n\n\n    /* GETTER FUNCTIONS */\n\n    // a view function of the length of candidate list\n    function getCandidateSize(bytes32 ballotID) public view returns (uint) {\n        return( ballots[ballotID].numOfCands);\n    }\n\n    // a view function of whether the ballot is restricted to country or not\n    function getBallotRestriction(bytes32 ballotID) public view returns (bool) {\n        return( ballots[ballotID].restriction);\n    }\n\n    // a view function of the ballots country restriction\n    function getBallotCountry(bytes32 ballotID) public view returns (bytes32) {\n        return( ballots[ballotID].country);\n    }\n\n    // a view function of the time ballot ends\n    function getEndTime(bytes32 ballotID) public view returns (uint) {\n        return( ballots[ballotID].length);\n    }\n\n    // a view function to access a ballots candidates\n    function getCandidateInfo(bytes32 ballotID) public view returns (bytes32[]) {\n        return( ballots[ballotID].candidates);\n    }\n\n    // a view function to access a ballots candidates\n    function getVotingInfo(bytes32 ballotID) public view returns (uint[]) {\n        return( ballots[ballotID].voteCount);\n    }\n\n    // a view function to get a title of the ballot\n    function getBallotTitle(bytes32 ballotID) public view returns (string) {\n        return(ballots[ballotID].title);\n    }\n}\n",
  "sourcePath": "/home/guy/projects/cooper/blockchain/final/Ballot/dApp/contracts/Voting.sol",
  "compiler": {
    "name": "solc",
    "version": "0.4.23+commit.124ca40d.Emscripten.clang"
  },
  "schemaVersion": "2.0.0",
  "updatedAt": "2018-05-07T00:08:13.006Z"
}