{
  "contractName": "Voting",
  "abi": [
    {
      "inputs": [],
      "payable": false,
      "stateMutability": "nonpayable",
      "type": "constructor"
    },
    {
      "anonymous": false,
      "inputs": [
        {
          "indexed": false,
          "name": "candidateID",
          "type": "uint256"
        }
      ],
      "name": "AddedCandidate",
      "type": "event"
    },
    {
      "constant": false,
      "inputs": [
        {
          "name": "ballotID",
          "type": "bytes32"
        },
        {
          "name": "len",
          "type": "uint256"
        },
        {
          "name": "numOfCands",
          "type": "uint256"
        },
        {
          "name": "cands",
          "type": "bytes32[]"
        },
        {
          "name": "votes",
          "type": "uint256[]"
        }
      ],
      "name": "createBallot",
      "outputs": [],
      "payable": false,
      "stateMutability": "nonpayable",
      "type": "function"
    },
    {
      "constant": true,
      "inputs": [
        {
          "name": "ballotID",
          "type": "bytes32"
        }
      ],
      "name": "confirmBallot",
      "outputs": [
        {
          "name": "",
          "type": "bool"
        }
      ],
      "payable": false,
      "stateMutability": "view",
      "type": "function"
    },
    {
      "constant": true,
      "inputs": [
        {
          "name": "ballotID",
          "type": "bytes32"
        }
      ],
      "name": "getCandidateSize",
      "outputs": [
        {
          "name": "",
          "type": "uint256"
        }
      ],
      "payable": false,
      "stateMutability": "view",
      "type": "function"
    },
    {
      "constant": true,
      "inputs": [
        {
          "name": "ballotID",
          "type": "bytes32"
        }
      ],
      "name": "getCandidateInfo",
      "outputs": [
        {
          "name": "",
          "type": "bytes32[]"
        }
      ],
      "payable": false,
      "stateMutability": "view",
      "type": "function"
    }
  ],
  "bytecode": "0x608060405234801561001057600080fd5b50610545806100206000396000f300608060405260043610610062576000357c0100000000000000000000000000000000000000000000000000000000900463ffffffff1680631371e33414610067578063bd667c5914610132578063f5606b9714610177578063fe135ffa146101c0575b600080fd5b34801561007357600080fd5b50610130600480360381019080803560001916906020019092919080359060200190929190803590602001909291908035906020019082018035906020019080806020026020016040519081016040528093929190818152602001838360200280828437820191505050505050919291929080359060200190820180359060200190808060200260200160405190810160405280939291908181526020018383602002808284378201915050505050509192919290505050610246565b005b34801561013e57600080fd5b506101616004803603810190808035600019169060200190929190505050610343565b6040518082815260200191505060405180910390f35b34801561018357600080fd5b506101a6600480360381019080803560001916906020019092919050505061036a565b604051808215151515815260200191505060405180910390f35b3480156101cc57600080fd5b506101ef60048036038101908080356000191690602001909291905050506103b6565b6040518080602001828103825283818151815260200191508051906020019060200280838360005b83811015610232578082015181840152602081019050610217565b505050509050019250505060405180910390f35b600080905060c06040519081016040528060011515815260200186815260200185815260200182600181111561027857fe5b815260200184815260200183815250600080886000191660001916815260200190815260200160002060008201518160000160006101000a81548160ff021916908315150217905550602082015181600101556040820151816002015560608201518160030160006101000a81548160ff021916908360018111156102f957fe5b0217905550608082015181600401908051906020019061031a92919061042f565b5060a0820151816005019080519060200190610337929190610482565b50905050505050505050565b60008060008360001916600019168152602001908152602001600020600201549050919050565b600060011515600080846000191660001916815260200190815260200160002060000160009054906101000a900460ff16151514156103ac57600190506103b1565b600090505b919050565b6060600080836000191660001916815260200190815260200160002060040180548060200260200160405190810160405280929190818152602001828054801561042357602002820191906000526020600020905b8154600019168152602001906001019080831161040b575b50505050509050919050565b828054828255906000526020600020908101928215610471579160200282015b8281111561047057825182906000191690559160200191906001019061044f565b5b50905061047e91906104cf565b5090565b8280548282559060005260206000209081019282156104be579160200282015b828111156104bd5782518255916020019190600101906104a2565b5b5090506104cb91906104f4565b5090565b6104f191905b808211156104ed5760008160009055506001016104d5565b5090565b90565b61051691905b808211156105125760008160009055506001016104fa565b5090565b905600a165627a7a723058209643cccf5dc23d8603fca69c90e68b6ed3017b2e092ef28e2791870cf0b54e1d0029",
  "source": "pragma solidity ^0.4.17;\n// written for Solidity version 0.4.18 and above that doesnt break functionality\n\ncontract Voting {\n    // an event that is called whenever a Candidate is added so the frontend could\n    // appropriately display the candidate with the right element id (it is used\n    // to vote for the candidate, since it is one of arguments for the function \"vote\")\n    event AddedCandidate(uint candidateID);\n\n\n\n    /* * * * * * * * * * * * * * * * * * * * * * * * * * * * * * * *\n     *  These functions perform transactions, editing the mappings *\n     * * * * * * * * * * * * * * * * * * * * * * * * * * * * * * * */\n    /*\n    function addCandidate(bytes32 name, bytes32 party) public {\n        candidateID is the return variable\n        uint candidateID = numCandidates++;\n        // Create new Candidate Struct with name and saves it to storage.\n        candidates[candidateID] = Candidate(name,party,true);\n        emit AddedCandidate(candidateID);\n    }\n\n    function vote(bytes32 uid, uint candidateID) public {\n        // checks if the struct exists for that candidate\n        if (candidates[candidateID].doesExist == true) {\n            uint voterID = numVoters++; //voterID is the return variable\n            voters[voterID] = Voter(uid,candidateID);\n        }\n    }\n    */\n    /* * * * * * * * * * * * * * * * * * * * * * * * * * \n     *  Getter Functions, marked by the key word \"view\" *\n     * * * * * * * * * * * * * * * * * * * * * * * * * */\n    \n\n    // finds the total amount of votes for a specific candidate by looping\n    // through voters \n    /*function totalVotes(uint candidateID) view public returns (uint) {\n        uint numOfVotes = 0; // we will return this\n        for (uint i = 0; i < numVoters; i++) {\n            // if the voter votes for this specific candidate, we increment the number\n            if (voters[i].candidateIDVote == candidateID) {\n                numOfVotes++;\n            }\n        }\n        return numOfVotes; \n    }\n    */\n\n\n    /* My added functions for uPort integration and accessing a ballot (basicall,\n    from the beginning to the point that the person actually gets to vote)  */\n\n    // contract constructor\n    constructor() public {\n    }\n\n    enum Restriction {None, Country}\n    struct Ballot {\n        bool exists;\n        uint length;\n        uint numOfCands;\n        Restriction restriction;  // the restrictions that can be applied to voting\n        bytes32[] candidates;\n        uint[] voteCount;\n    }\n    mapping (bytes32 => Ballot) ballots; // unique ID that will be used to identify the Ballot\n\n    // a function to create a ballot\n    function createBallot(bytes32 ballotID, uint len, uint numOfCands, bytes32[] cands, uint[] votes) public { \n        Restriction rest = Restriction.None;\n        ballots[ballotID] = Ballot(true, len, numOfCands, rest, cands, votes);\n    }\n\n    // a view function to find a ballot\n    function confirmBallot(bytes32 ballotID) public view returns (bool) {\n        if (ballots[ballotID].exists == true)\n            return true;\n        else\n            return false;\n    }\n\n    // a view function of the length of candidate list\n    function getCandidateSize(bytes32 ballotID) public view returns (uint) {\n        return( ballots[ballotID].numOfCands);\n    }\n\n    // a view function to access a ballots candidates\n    function getCandidateInfo(bytes32 ballotID) public view returns (bytes32[]) {\n        return( ballots[ballotID].candidates);\n    }\n}\n",
  "sourcePath": "/home/guy/projects/cooper/blockchain/final/Ballot/dApp/contracts/Voting.sol",
  "compiler": {
    "name": "solc",
    "version": "0.4.23+commit.124ca40d.Emscripten.clang"
  },
  "schemaVersion": "2.0.0",
  "updatedAt": "2018-05-01T18:50:53.697Z"
}