{
  "contractName": "Voting",
  "abi": [
    {
      "anonymous": false,
      "inputs": [
        {
          "indexed": false,
          "name": "candidateID",
          "type": "uint256"
        }
      ],
      "name": "AddedCandidate",
      "type": "event"
    },
    {
      "constant": false,
      "inputs": [
        {
          "name": "ballotID",
          "type": "bytes32"
        },
        {
          "name": "len",
          "type": "uint256"
        },
        {
          "name": "country",
          "type": "bytes32"
        },
        {
          "name": "numcands",
          "type": "uint256"
        },
        {
          "name": "cands",
          "type": "bytes32[]"
        },
        {
          "name": "votes",
          "type": "uint256[]"
        }
      ],
      "name": "createBallot",
      "outputs": [],
      "payable": false,
      "stateMutability": "nonpayable",
      "type": "function"
    },
    {
      "constant": true,
      "inputs": [
        {
          "name": "ballotID",
          "type": "bytes32"
        }
      ],
      "name": "getBallotInfo",
      "outputs": [
        {
          "name": "",
          "type": "uint256"
        },
        {
          "name": "",
          "type": "uint8"
        },
        {
          "name": "",
          "type": "bytes32"
        },
        {
          "name": "",
          "type": "uint256"
        }
      ],
      "payable": false,
      "stateMutability": "view",
      "type": "function"
    },
    {
      "constant": true,
      "inputs": [
        {
          "name": "ballotID",
          "type": "bytes32"
        },
        {
          "name": "candidateID",
          "type": "uint256"
        }
      ],
      "name": "getCandidateInfo",
      "outputs": [
        {
          "name": "",
          "type": "bytes32"
        }
      ],
      "payable": false,
      "stateMutability": "view",
      "type": "function"
    }
  ],
  "bytecode": "0x608060405234801561001057600080fd5b506104ec806100206000396000f300608060405260043610610057576000357c0100000000000000000000000000000000000000000000000000000000900463ffffffff16806366514c2d1461005c578063836de470146100cc578063a8a95fd014610123575b600080fd5b34801561006857600080fd5b5061008b60048036038101908080356000191690602001909291905050506101fc565b604051808581526020018460018111156100a157fe5b60ff168152602001836000191660001916815260200182815260200194505050505060405180910390f35b3480156100d857600080fd5b50610105600480360381019080803560001916906020019092919080359060200190929190505050610296565b60405180826000191660001916815260200191505060405180910390f35b34801561012f57600080fd5b506101fa60048036038101908080356000191690602001909291908035906020019092919080356000191690602001909291908035906020019092919080359060200190820180359060200190808060200260200160405190810160405280939291908181526020018383602002808284378201915050505050509192919290803590602001908201803590602001908080602002602001604051908101604052809392919081815260200183836020028082843782019150505050505091929192905050506102d5565b005b600080600080600080866000191660001916815260200190815260200160002060000154600080876000191660001916815260200190815260200160002060010160009054906101000a900460ff1660008088600019166000191681526020019081526020016000206002015460008089600019166000191681526020019081526020016000206003015493509350935093509193509193565b60008060008460001916600019168152602001908152602001600020600401828154811015156102c257fe5b9060005260206000200154905092915050565b600080905060c0604051908101604052808781526020018260018111156102f857fe5b8152602001866000191681526020018581526020018481526020018381525060008089600019166000191681526020019081526020016000206000820151816000015560208201518160010160006101000a81548160ff0219169083600181111561035f57fe5b02179055506040820151816002019060001916905560608201518160030155608082015181600401908051906020019061039a9291906103d6565b5060a08201518160050190805190602001906103b7929190610429565b5090505060016000815480929190600101919050555050505050505050565b828054828255906000526020600020908101928215610418579160200282015b828111156104175782518290600019169055916020019190600101906103f6565b5b5090506104259190610476565b5090565b828054828255906000526020600020908101928215610465579160200282015b82811115610464578251825591602001919060010190610449565b5b509050610472919061049b565b5090565b61049891905b8082111561049457600081600090555060010161047c565b5090565b90565b6104bd91905b808211156104b95760008160009055506001016104a1565b5090565b905600a165627a7a723058200966ec825ddb52fe831d5e228f50f1e936a130cf5384175a9195cd06c726b84a0029",
  "source": "pragma solidity ^0.4.17;\n// written for Solidity version 0.4.18 and above that doesnt break functionality\n\ncontract Voting {\n    // an event that is called whenever a Candidate is added so the frontend could\n    // appropriately display the candidate with the right element id (it is used\n    // to vote for the candidate, since it is one of arguments for the function \"vote\")\n    event AddedCandidate(uint candidateID);\n\n\n\n    /* * * * * * * * * * * * * * * * * * * * * * * * * * * * * * * *\n     *  These functions perform transactions, editing the mappings *\n     * * * * * * * * * * * * * * * * * * * * * * * * * * * * * * * */\n    /*\n    function addCandidate(bytes32 name, bytes32 party) public {\n        candidateID is the return variable\n        uint candidateID = numCandidates++;\n        // Create new Candidate Struct with name and saves it to storage.\n        candidates[candidateID] = Candidate(name,party,true);\n        emit AddedCandidate(candidateID);\n    }\n\n    function vote(bytes32 uid, uint candidateID) public {\n        // checks if the struct exists for that candidate\n        if (candidates[candidateID].doesExist == true) {\n            uint voterID = numVoters++; //voterID is the return variable\n            voters[voterID] = Voter(uid,candidateID);\n        }\n    }\n    */\n    /* * * * * * * * * * * * * * * * * * * * * * * * * * \n     *  Getter Functions, marked by the key word \"view\" *\n     * * * * * * * * * * * * * * * * * * * * * * * * * */\n    \n\n    // finds the total amount of votes for a specific candidate by looping\n    // through voters \n    /*function totalVotes(uint candidateID) view public returns (uint) {\n        uint numOfVotes = 0; // we will return this\n        for (uint i = 0; i < numVoters; i++) {\n            // if the voter votes for this specific candidate, we increment the number\n            if (voters[i].candidateIDVote == candidateID) {\n                numOfVotes++;\n            }\n        }\n        return numOfVotes; \n    }\n    */\n\n\n    /* My added functions for uPort integration and accessing a ballot (basicall,\n    from the beginning to the point that the person actually gets to vote)  */\n/*\n    // contract constructor\n    constructor() public {\n        ballotCount = 0;\n\n        // all this is just for testing, to have a ballot already up and running\n        bytes32[] cands;\n        cands[0] = \"Alice\";\n        cands[1] = \"Bob\";\n        uint[] votes;\n        votes[0] = 0;\n        votes[1] = 0;\n        bytes32 ballotid = \"aaaaaaa\";\n        ballots[ballotid] = Ballot(999999, Restriction.None, \"country\", 2, cands, votes);\n    }\n*/\n    enum Restriction {None, Country}\n    struct Ballot {\n        uint length;\n        Restriction restriction;  // the restrictions that can be applied to voting\n        bytes32 country;\n        uint numCandidates;\n        bytes32[] candidates;\n        uint[] voteCount;\n    }\n    mapping (bytes32 => Ballot) ballots; // unique ID that will be used to identify the Ballot\n    uint ballotCount;   // the amount of ballots created overall\n\n    // a function to create a ballot\n    function createBallot(bytes32 ballotID, uint len, bytes32 country, uint numcands, bytes32[] cands, uint[] votes) public { \n        Restriction rest = Restriction.None;\n        ballots[ballotID] = Ballot(len, rest, country, numcands, cands, votes);\n        ballotCount++;\n    }\n\n    // a view function to find a ballot\n    function getBallotInfo(bytes32 ballotID) public view returns (uint, Restriction, bytes32, uint ) {\n        return ( ballots[ballotID].length, ballots[ballotID].restriction, ballots[ballotID].country, ballots[ballotID].numCandidates);\n    }\n\n    // a view function to access a ballots candidates\n    function getCandidateInfo(bytes32 ballotID, uint candidateID) public view returns (bytes32) {\n        return( ballots[ballotID].candidates[candidateID]);\n    }\n}\n",
  "sourcePath": "/home/guy/projects/cooper/blockchain/final/decentralizedVotingPlatform/dApp/contracts/Voting.sol",
  "compiler": {
    "name": "solc",
    "version": "0.4.23+commit.124ca40d.Emscripten.clang"
  },
  "schemaVersion": "2.0.0",
  "updatedAt": "2018-04-30T17:51:11.932Z"
}